{
  "address": "0xe792CeF90BD4C551434fA83f3317efA924265dFD",
  "abi": [
    {
      "inputs": [
        {
          "internalType": "address",
          "name": "defaultAdmin",
          "type": "address"
        }
      ],
      "stateMutability": "nonpayable",
      "type": "constructor"
    },
    {
      "inputs": [],
      "name": "AccessControlBadConfirmation",
      "type": "error"
    },
    {
      "inputs": [
        {
          "internalType": "address",
          "name": "account",
          "type": "address"
        },
        {
          "internalType": "bytes32",
          "name": "neededRole",
          "type": "bytes32"
        }
      ],
      "name": "AccessControlUnauthorizedAccount",
      "type": "error"
    },
    {
      "inputs": [
        {
          "internalType": "address",
          "name": "spender",
          "type": "address"
        },
        {
          "internalType": "uint256",
          "name": "allowance",
          "type": "uint256"
        },
        {
          "internalType": "uint256",
          "name": "needed",
          "type": "uint256"
        }
      ],
      "name": "ERC20InsufficientAllowance",
      "type": "error"
    },
    {
      "inputs": [
        {
          "internalType": "address",
          "name": "sender",
          "type": "address"
        },
        {
          "internalType": "uint256",
          "name": "balance",
          "type": "uint256"
        },
        {
          "internalType": "uint256",
          "name": "needed",
          "type": "uint256"
        }
      ],
      "name": "ERC20InsufficientBalance",
      "type": "error"
    },
    {
      "inputs": [
        {
          "internalType": "address",
          "name": "approver",
          "type": "address"
        }
      ],
      "name": "ERC20InvalidApprover",
      "type": "error"
    },
    {
      "inputs": [
        {
          "internalType": "address",
          "name": "receiver",
          "type": "address"
        }
      ],
      "name": "ERC20InvalidReceiver",
      "type": "error"
    },
    {
      "inputs": [
        {
          "internalType": "address",
          "name": "sender",
          "type": "address"
        }
      ],
      "name": "ERC20InvalidSender",
      "type": "error"
    },
    {
      "inputs": [
        {
          "internalType": "address",
          "name": "spender",
          "type": "address"
        }
      ],
      "name": "ERC20InvalidSpender",
      "type": "error"
    },
    {
      "anonymous": false,
      "inputs": [
        {
          "indexed": true,
          "internalType": "address",
          "name": "owner",
          "type": "address"
        },
        {
          "indexed": true,
          "internalType": "address",
          "name": "spender",
          "type": "address"
        },
        {
          "indexed": false,
          "internalType": "uint256",
          "name": "value",
          "type": "uint256"
        }
      ],
      "name": "Approval",
      "type": "event"
    },
    {
      "anonymous": false,
      "inputs": [
        {
          "indexed": true,
          "internalType": "bytes32",
          "name": "role",
          "type": "bytes32"
        },
        {
          "indexed": true,
          "internalType": "bytes32",
          "name": "previousAdminRole",
          "type": "bytes32"
        },
        {
          "indexed": true,
          "internalType": "bytes32",
          "name": "newAdminRole",
          "type": "bytes32"
        }
      ],
      "name": "RoleAdminChanged",
      "type": "event"
    },
    {
      "anonymous": false,
      "inputs": [
        {
          "indexed": true,
          "internalType": "bytes32",
          "name": "role",
          "type": "bytes32"
        },
        {
          "indexed": true,
          "internalType": "address",
          "name": "account",
          "type": "address"
        },
        {
          "indexed": true,
          "internalType": "address",
          "name": "sender",
          "type": "address"
        }
      ],
      "name": "RoleGranted",
      "type": "event"
    },
    {
      "anonymous": false,
      "inputs": [
        {
          "indexed": true,
          "internalType": "bytes32",
          "name": "role",
          "type": "bytes32"
        },
        {
          "indexed": true,
          "internalType": "address",
          "name": "account",
          "type": "address"
        },
        {
          "indexed": true,
          "internalType": "address",
          "name": "sender",
          "type": "address"
        }
      ],
      "name": "RoleRevoked",
      "type": "event"
    },
    {
      "anonymous": false,
      "inputs": [
        {
          "indexed": true,
          "internalType": "address",
          "name": "from",
          "type": "address"
        },
        {
          "indexed": true,
          "internalType": "address",
          "name": "to",
          "type": "address"
        },
        {
          "indexed": false,
          "internalType": "uint256",
          "name": "value",
          "type": "uint256"
        }
      ],
      "name": "Transfer",
      "type": "event"
    },
    {
      "inputs": [],
      "name": "DEFAULT_ADMIN_ROLE",
      "outputs": [
        {
          "internalType": "bytes32",
          "name": "",
          "type": "bytes32"
        }
      ],
      "stateMutability": "view",
      "type": "function"
    },
    {
      "inputs": [
        {
          "internalType": "address",
          "name": "owner",
          "type": "address"
        },
        {
          "internalType": "address",
          "name": "spender",
          "type": "address"
        }
      ],
      "name": "allowance",
      "outputs": [
        {
          "internalType": "uint256",
          "name": "",
          "type": "uint256"
        }
      ],
      "stateMutability": "view",
      "type": "function"
    },
    {
      "inputs": [
        {
          "internalType": "address",
          "name": "spender",
          "type": "address"
        },
        {
          "internalType": "uint256",
          "name": "value",
          "type": "uint256"
        }
      ],
      "name": "approve",
      "outputs": [
        {
          "internalType": "bool",
          "name": "",
          "type": "bool"
        }
      ],
      "stateMutability": "nonpayable",
      "type": "function"
    },
    {
      "inputs": [
        {
          "internalType": "address",
          "name": "account",
          "type": "address"
        }
      ],
      "name": "balanceOf",
      "outputs": [
        {
          "internalType": "uint256",
          "name": "",
          "type": "uint256"
        }
      ],
      "stateMutability": "view",
      "type": "function"
    },
    {
      "inputs": [],
      "name": "decimals",
      "outputs": [
        {
          "internalType": "uint8",
          "name": "",
          "type": "uint8"
        }
      ],
      "stateMutability": "view",
      "type": "function"
    },
    {
      "inputs": [
        {
          "internalType": "bytes32",
          "name": "role",
          "type": "bytes32"
        }
      ],
      "name": "getRoleAdmin",
      "outputs": [
        {
          "internalType": "bytes32",
          "name": "",
          "type": "bytes32"
        }
      ],
      "stateMutability": "view",
      "type": "function"
    },
    {
      "inputs": [
        {
          "internalType": "bytes32",
          "name": "role",
          "type": "bytes32"
        },
        {
          "internalType": "address",
          "name": "account",
          "type": "address"
        }
      ],
      "name": "grantRole",
      "outputs": [],
      "stateMutability": "nonpayable",
      "type": "function"
    },
    {
      "inputs": [
        {
          "internalType": "bytes32",
          "name": "role",
          "type": "bytes32"
        },
        {
          "internalType": "address",
          "name": "account",
          "type": "address"
        }
      ],
      "name": "hasRole",
      "outputs": [
        {
          "internalType": "bool",
          "name": "",
          "type": "bool"
        }
      ],
      "stateMutability": "view",
      "type": "function"
    },
    {
      "inputs": [],
      "name": "name",
      "outputs": [
        {
          "internalType": "string",
          "name": "",
          "type": "string"
        }
      ],
      "stateMutability": "view",
      "type": "function"
    },
    {
      "inputs": [
        {
          "internalType": "bytes32",
          "name": "role",
          "type": "bytes32"
        },
        {
          "internalType": "address",
          "name": "callerConfirmation",
          "type": "address"
        }
      ],
      "name": "renounceRole",
      "outputs": [],
      "stateMutability": "nonpayable",
      "type": "function"
    },
    {
      "inputs": [
        {
          "internalType": "bytes32",
          "name": "role",
          "type": "bytes32"
        },
        {
          "internalType": "address",
          "name": "account",
          "type": "address"
        }
      ],
      "name": "revokeRole",
      "outputs": [],
      "stateMutability": "nonpayable",
      "type": "function"
    },
    {
      "inputs": [
        {
          "internalType": "bytes4",
          "name": "interfaceId",
          "type": "bytes4"
        }
      ],
      "name": "supportsInterface",
      "outputs": [
        {
          "internalType": "bool",
          "name": "",
          "type": "bool"
        }
      ],
      "stateMutability": "view",
      "type": "function"
    },
    {
      "inputs": [],
      "name": "symbol",
      "outputs": [
        {
          "internalType": "string",
          "name": "",
          "type": "string"
        }
      ],
      "stateMutability": "view",
      "type": "function"
    },
    {
      "inputs": [],
      "name": "totalSupply",
      "outputs": [
        {
          "internalType": "uint256",
          "name": "",
          "type": "uint256"
        }
      ],
      "stateMutability": "view",
      "type": "function"
    },
    {
      "inputs": [
        {
          "internalType": "address",
          "name": "to",
          "type": "address"
        },
        {
          "internalType": "uint256",
          "name": "value",
          "type": "uint256"
        }
      ],
      "name": "transfer",
      "outputs": [
        {
          "internalType": "bool",
          "name": "",
          "type": "bool"
        }
      ],
      "stateMutability": "nonpayable",
      "type": "function"
    },
    {
      "inputs": [
        {
          "internalType": "address",
          "name": "from",
          "type": "address"
        },
        {
          "internalType": "address",
          "name": "to",
          "type": "address"
        },
        {
          "internalType": "uint256",
          "name": "value",
          "type": "uint256"
        }
      ],
      "name": "transferFrom",
      "outputs": [
        {
          "internalType": "bool",
          "name": "",
          "type": "bool"
        }
      ],
      "stateMutability": "nonpayable",
      "type": "function"
    }
  ],
  "transactionHash": "0xc6d9da0b62aff5947c26f47e104ebdcd51f0f531f776f3c42c799b53327aca41",
  "args": [
    "0xeF236f1b35B2105836540c23d055d1BFb6c5db52"
  ],
  "numDeployments": 1,
  "solcInputHash": "9dd4d804e598ef2d022aae9bfe642410",
  "bytecode": "0x608060405234801562000010575f80fd5b5060405162002152380380620021528339818101604052810190620000369190620005a6565b6040518060400160405280600781526020017f416c7578696f6e000000000000000000000000000000000000000000000000008152506040518060400160405280600781526020017f414c5558494f4e000000000000000000000000000000000000000000000000008152508160039081620000b391906200083a565b508060049081620000c591906200083a565b5050506200010833620000dd6200012460201b60201c565b600a620000eb919062000aa7565b630112a880620000fc919062000af7565b6200012c60201b60201c565b6200011c5f801b82620001b660201b60201c565b505062000c0e565b5f6012905090565b5f73ffffffffffffffffffffffffffffffffffffffff168273ffffffffffffffffffffffffffffffffffffffff16036200019f575f6040517fec442f0500000000000000000000000000000000000000000000000000000000815260040162000196919062000b52565b60405180910390fd5b620001b25f8383620002b260201b60201c565b5050565b5f620001c98383620004d660201b60201c565b620002a857600160055f8581526020019081526020015f205f015f8473ffffffffffffffffffffffffffffffffffffffff1673ffffffffffffffffffffffffffffffffffffffff1681526020019081526020015f205f6101000a81548160ff021916908315150217905550620002446200053a60201b60201c565b73ffffffffffffffffffffffffffffffffffffffff168273ffffffffffffffffffffffffffffffffffffffff16847f2f8788117e7eff1d82e926ec794901d17c78024a50270940304540a733656f0d60405160405180910390a460019050620002ac565b5f90505b92915050565b5f73ffffffffffffffffffffffffffffffffffffffff168373ffffffffffffffffffffffffffffffffffffffff160362000306578060025f828254620002f9919062000b6d565b92505081905550620003d7565b5f805f8573ffffffffffffffffffffffffffffffffffffffff1673ffffffffffffffffffffffffffffffffffffffff1681526020019081526020015f205490508181101562000392578381836040517fe450d38c000000000000000000000000000000000000000000000000000000008152600401620003899392919062000bb8565b60405180910390fd5b8181035f808673ffffffffffffffffffffffffffffffffffffffff1673ffffffffffffffffffffffffffffffffffffffff1681526020019081526020015f2081905550505b5f73ffffffffffffffffffffffffffffffffffffffff168273ffffffffffffffffffffffffffffffffffffffff160362000420578060025f82825403925050819055506200046a565b805f808473ffffffffffffffffffffffffffffffffffffffff1673ffffffffffffffffffffffffffffffffffffffff1681526020019081526020015f205f82825401925050819055505b8173ffffffffffffffffffffffffffffffffffffffff168373ffffffffffffffffffffffffffffffffffffffff167fddf252ad1be2c89b69c2b068fc378daa952ba7f163c4a11628f55a4df523b3ef83604051620004c9919062000bf3565b60405180910390a3505050565b5f60055f8481526020019081526020015f205f015f8373ffffffffffffffffffffffffffffffffffffffff1673ffffffffffffffffffffffffffffffffffffffff1681526020019081526020015f205f9054906101000a900460ff16905092915050565b5f33905090565b5f80fd5b5f73ffffffffffffffffffffffffffffffffffffffff82169050919050565b5f620005708262000545565b9050919050565b620005828162000564565b81146200058d575f80fd5b50565b5f81519050620005a08162000577565b92915050565b5f60208284031215620005be57620005bd62000541565b5b5f620005cd8482850162000590565b91505092915050565b5f81519050919050565b7f4e487b71000000000000000000000000000000000000000000000000000000005f52604160045260245ffd5b7f4e487b71000000000000000000000000000000000000000000000000000000005f52602260045260245ffd5b5f60028204905060018216806200065257607f821691505b6020821081036200066857620006676200060d565b5b50919050565b5f819050815f5260205f209050919050565b5f6020601f8301049050919050565b5f82821b905092915050565b5f60088302620006cc7fffffffffffffffffffffffffffffffffffffffffffffffffffffffffffffffff826200068f565b620006d886836200068f565b95508019841693508086168417925050509392505050565b5f819050919050565b5f819050919050565b5f620007226200071c6200071684620006f0565b620006f9565b620006f0565b9050919050565b5f819050919050565b6200073d8362000702565b620007556200074c8262000729565b8484546200069b565b825550505050565b5f90565b6200076b6200075d565b6200077881848462000732565b505050565b5b818110156200079f57620007935f8262000761565b6001810190506200077e565b5050565b601f821115620007ee57620007b8816200066e565b620007c38462000680565b81016020851015620007d3578190505b620007eb620007e28562000680565b8301826200077d565b50505b505050565b5f82821c905092915050565b5f620008105f1984600802620007f3565b1980831691505092915050565b5f6200082a8383620007ff565b9150826002028217905092915050565b6200084582620005d6565b67ffffffffffffffff811115620008615762000860620005e0565b5b6200086d82546200063a565b6200087a828285620007a3565b5f60209050601f831160018114620008b0575f84156200089b578287015190505b620008a785826200081d565b86555062000916565b601f198416620008c0866200066e565b5f5b82811015620008e957848901518255600182019150602085019450602081019050620008c2565b8683101562000909578489015162000905601f891682620007ff565b8355505b6001600288020188555050505b505050505050565b7f4e487b71000000000000000000000000000000000000000000000000000000005f52601160045260245ffd5b5f8160011c9050919050565b5f808291508390505b6001851115620009a85780860481111562000980576200097f6200091e565b5b6001851615620009905780820291505b8081029050620009a0856200094b565b945062000960565b94509492505050565b5f82620009c2576001905062000a94565b81620009d1575f905062000a94565b8160018114620009ea5760028114620009f55762000a2b565b600191505062000a94565b60ff84111562000a0a5762000a096200091e565b5b8360020a91508482111562000a245762000a236200091e565b5b5062000a94565b5060208310610133831016604e8410600b841016171562000a655782820a90508381111562000a5f5762000a5e6200091e565b5b62000a94565b62000a74848484600162000957565b9250905081840481111562000a8e5762000a8d6200091e565b5b81810290505b9392505050565b5f60ff82169050919050565b5f62000ab382620006f0565b915062000ac08362000a9b565b925062000aef7fffffffffffffffffffffffffffffffffffffffffffffffffffffffffffffffff8484620009b1565b905092915050565b5f62000b0382620006f0565b915062000b1083620006f0565b925082820262000b2081620006f0565b9150828204841483151762000b3a5762000b396200091e565b5b5092915050565b62000b4c8162000564565b82525050565b5f60208201905062000b675f83018462000b41565b92915050565b5f62000b7982620006f0565b915062000b8683620006f0565b925082820190508082111562000ba15762000ba06200091e565b5b92915050565b62000bb281620006f0565b82525050565b5f60608201905062000bcd5f83018662000b41565b62000bdc602083018562000ba7565b62000beb604083018462000ba7565b949350505050565b5f60208201905062000c085f83018462000ba7565b92915050565b6115368062000c1c5f395ff3fe608060405234801561000f575f80fd5b50600436106100fe575f3560e01c806336568abe11610095578063a217fddf11610064578063a217fddf146102d2578063a9059cbb146102f0578063d547741f14610320578063dd62ed3e1461033c576100fe565b806336568abe1461023857806370a082311461025457806391d148541461028457806395d89b41146102b4576100fe565b806323b872dd116100d157806323b872dd1461019e578063248a9ca3146101ce5780632f2ff15d146101fe578063313ce5671461021a576100fe565b806301ffc9a71461010257806306fdde0314610132578063095ea7b31461015057806318160ddd14610180575b5f80fd5b61011c60048036038101906101179190611013565b61036c565b6040516101299190611058565b60405180910390f35b61013a6103e5565b60405161014791906110fb565b60405180910390f35b61016a600480360381019061016591906111a8565b610475565b6040516101779190611058565b60405180910390f35b610188610497565b60405161019591906111f5565b60405180910390f35b6101b860048036038101906101b3919061120e565b6104a0565b6040516101c59190611058565b60405180910390f35b6101e860048036038101906101e39190611291565b6104ce565b6040516101f591906112cb565b60405180910390f35b610218600480360381019061021391906112e4565b6104eb565b005b61022261050d565b60405161022f919061133d565b60405180910390f35b610252600480360381019061024d91906112e4565b610515565b005b61026e60048036038101906102699190611356565b610590565b60405161027b91906111f5565b60405180910390f35b61029e600480360381019061029991906112e4565b6105d5565b6040516102ab9190611058565b60405180910390f35b6102bc610639565b6040516102c991906110fb565b60405180910390f35b6102da6106c9565b6040516102e791906112cb565b60405180910390f35b61030a600480360381019061030591906111a8565b6106cf565b6040516103179190611058565b60405180910390f35b61033a600480360381019061033591906112e4565b6106f1565b005b61035660048036038101906103519190611381565b610713565b60405161036391906111f5565b60405180910390f35b5f7f7965db0b000000000000000000000000000000000000000000000000000000007bffffffffffffffffffffffffffffffffffffffffffffffffffffffff1916827bffffffffffffffffffffffffffffffffffffffffffffffffffffffff191614806103de57506103dd82610795565b5b9050919050565b6060600380546103f4906113ec565b80601f0160208091040260200160405190810160405280929190818152602001828054610420906113ec565b801561046b5780601f106104425761010080835404028352916020019161046b565b820191905f5260205f20905b81548152906001019060200180831161044e57829003601f168201915b5050505050905090565b5f8061047f6107fe565b905061048c818585610805565b600191505092915050565b5f600254905090565b5f806104aa6107fe565b90506104b7858285610817565b6104c28585856108a9565b60019150509392505050565b5f60055f8381526020019081526020015f20600101549050919050565b6104f4826104ce565b6104fd81610999565b61050783836109ad565b50505050565b5f6012905090565b61051d6107fe565b73ffffffffffffffffffffffffffffffffffffffff168173ffffffffffffffffffffffffffffffffffffffff1614610581576040517f6697b23200000000000000000000000000000000000000000000000000000000815260040160405180910390fd5b61058b8282610a97565b505050565b5f805f8373ffffffffffffffffffffffffffffffffffffffff1673ffffffffffffffffffffffffffffffffffffffff1681526020019081526020015f20549050919050565b5f60055f8481526020019081526020015f205f015f8373ffffffffffffffffffffffffffffffffffffffff1673ffffffffffffffffffffffffffffffffffffffff1681526020019081526020015f205f9054906101000a900460ff16905092915050565b606060048054610648906113ec565b80601f0160208091040260200160405190810160405280929190818152602001828054610674906113ec565b80156106bf5780601f10610696576101008083540402835291602001916106bf565b820191905f5260205f20905b8154815290600101906020018083116106a257829003601f168201915b5050505050905090565b5f801b81565b5f806106d96107fe565b90506106e68185856108a9565b600191505092915050565b6106fa826104ce565b61070381610999565b61070d8383610a97565b50505050565b5f60015f8473ffffffffffffffffffffffffffffffffffffffff1673ffffffffffffffffffffffffffffffffffffffff1681526020019081526020015f205f8373ffffffffffffffffffffffffffffffffffffffff1673ffffffffffffffffffffffffffffffffffffffff1681526020019081526020015f2054905092915050565b5f7f01ffc9a7000000000000000000000000000000000000000000000000000000007bffffffffffffffffffffffffffffffffffffffffffffffffffffffff1916827bffffffffffffffffffffffffffffffffffffffffffffffffffffffff1916149050919050565b5f33905090565b6108128383836001610b81565b505050565b5f6108228484610713565b90507fffffffffffffffffffffffffffffffffffffffffffffffffffffffffffffffff81146108a35781811015610894578281836040517ffb8f41b200000000000000000000000000000000000000000000000000000000815260040161088b9392919061142b565b60405180910390fd5b6108a284848484035f610b81565b5b50505050565b5f73ffffffffffffffffffffffffffffffffffffffff168373ffffffffffffffffffffffffffffffffffffffff1603610919575f6040517f96c6fd1e0000000000000000000000000000000000000000000000000000000081526004016109109190611460565b60405180910390fd5b5f73ffffffffffffffffffffffffffffffffffffffff168273ffffffffffffffffffffffffffffffffffffffff1603610989575f6040517fec442f050000000000000000000000000000000000000000000000000000000081526004016109809190611460565b60405180910390fd5b610994838383610d50565b505050565b6109aa816109a56107fe565b610f69565b50565b5f6109b883836105d5565b610a8d57600160055f8581526020019081526020015f205f015f8473ffffffffffffffffffffffffffffffffffffffff1673ffffffffffffffffffffffffffffffffffffffff1681526020019081526020015f205f6101000a81548160ff021916908315150217905550610a2a6107fe565b73ffffffffffffffffffffffffffffffffffffffff168273ffffffffffffffffffffffffffffffffffffffff16847f2f8788117e7eff1d82e926ec794901d17c78024a50270940304540a733656f0d60405160405180910390a460019050610a91565b5f90505b92915050565b5f610aa283836105d5565b15610b77575f60055f8581526020019081526020015f205f015f8473ffffffffffffffffffffffffffffffffffffffff1673ffffffffffffffffffffffffffffffffffffffff1681526020019081526020015f205f6101000a81548160ff021916908315150217905550610b146107fe565b73ffffffffffffffffffffffffffffffffffffffff168273ffffffffffffffffffffffffffffffffffffffff16847ff6391f5c32d9c69d2a47ea670b442974b53935d1edc7fd64eb21e047a839171b60405160405180910390a460019050610b7b565b5f90505b92915050565b5f73ffffffffffffffffffffffffffffffffffffffff168473ffffffffffffffffffffffffffffffffffffffff1603610bf1575f6040517fe602df05000000000000000000000000000000000000000000000000000000008152600401610be89190611460565b60405180910390fd5b5f73ffffffffffffffffffffffffffffffffffffffff168373ffffffffffffffffffffffffffffffffffffffff1603610c61575f6040517f94280d62000000000000000000000000000000000000000000000000000000008152600401610c589190611460565b60405180910390fd5b8160015f8673ffffffffffffffffffffffffffffffffffffffff1673ffffffffffffffffffffffffffffffffffffffff1681526020019081526020015f205f8573ffffffffffffffffffffffffffffffffffffffff1673ffffffffffffffffffffffffffffffffffffffff1681526020019081526020015f20819055508015610d4a578273ffffffffffffffffffffffffffffffffffffffff168473ffffffffffffffffffffffffffffffffffffffff167f8c5be1e5ebec7d5bd14f71427d1e84f3dd0314c0f7b2291e5b200ac8c7c3b92584604051610d4191906111f5565b60405180910390a35b50505050565b5f73ffffffffffffffffffffffffffffffffffffffff168373ffffffffffffffffffffffffffffffffffffffff1603610da0578060025f828254610d9491906114a6565b92505081905550610e6e565b5f805f8573ffffffffffffffffffffffffffffffffffffffff1673ffffffffffffffffffffffffffffffffffffffff1681526020019081526020015f2054905081811015610e29578381836040517fe450d38c000000000000000000000000000000000000000000000000000000008152600401610e209392919061142b565b60405180910390fd5b8181035f808673ffffffffffffffffffffffffffffffffffffffff1673ffffffffffffffffffffffffffffffffffffffff1681526020019081526020015f2081905550505b5f73ffffffffffffffffffffffffffffffffffffffff168273ffffffffffffffffffffffffffffffffffffffff1603610eb5578060025f8282540392505081905550610eff565b805f808473ffffffffffffffffffffffffffffffffffffffff1673ffffffffffffffffffffffffffffffffffffffff1681526020019081526020015f205f82825401925050819055505b8173ffffffffffffffffffffffffffffffffffffffff168373ffffffffffffffffffffffffffffffffffffffff167fddf252ad1be2c89b69c2b068fc378daa952ba7f163c4a11628f55a4df523b3ef83604051610f5c91906111f5565b60405180910390a3505050565b610f7382826105d5565b610fb65780826040517fe2517d3f000000000000000000000000000000000000000000000000000000008152600401610fad9291906114d9565b60405180910390fd5b5050565b5f80fd5b5f7fffffffff0000000000000000000000000000000000000000000000000000000082169050919050565b610ff281610fbe565b8114610ffc575f80fd5b50565b5f8135905061100d81610fe9565b92915050565b5f6020828403121561102857611027610fba565b5b5f61103584828501610fff565b91505092915050565b5f8115159050919050565b6110528161103e565b82525050565b5f60208201905061106b5f830184611049565b92915050565b5f81519050919050565b5f82825260208201905092915050565b5f5b838110156110a857808201518184015260208101905061108d565b5f8484015250505050565b5f601f19601f8301169050919050565b5f6110cd82611071565b6110d7818561107b565b93506110e781856020860161108b565b6110f0816110b3565b840191505092915050565b5f6020820190508181035f83015261111381846110c3565b905092915050565b5f73ffffffffffffffffffffffffffffffffffffffff82169050919050565b5f6111448261111b565b9050919050565b6111548161113a565b811461115e575f80fd5b50565b5f8135905061116f8161114b565b92915050565b5f819050919050565b61118781611175565b8114611191575f80fd5b50565b5f813590506111a28161117e565b92915050565b5f80604083850312156111be576111bd610fba565b5b5f6111cb85828601611161565b92505060206111dc85828601611194565b9150509250929050565b6111ef81611175565b82525050565b5f6020820190506112085f8301846111e6565b92915050565b5f805f6060848603121561122557611224610fba565b5b5f61123286828701611161565b935050602061124386828701611161565b925050604061125486828701611194565b9150509250925092565b5f819050919050565b6112708161125e565b811461127a575f80fd5b50565b5f8135905061128b81611267565b92915050565b5f602082840312156112a6576112a5610fba565b5b5f6112b38482850161127d565b91505092915050565b6112c58161125e565b82525050565b5f6020820190506112de5f8301846112bc565b92915050565b5f80604083850312156112fa576112f9610fba565b5b5f6113078582860161127d565b925050602061131885828601611161565b9150509250929050565b5f60ff82169050919050565b61133781611322565b82525050565b5f6020820190506113505f83018461132e565b92915050565b5f6020828403121561136b5761136a610fba565b5b5f61137884828501611161565b91505092915050565b5f806040838503121561139757611396610fba565b5b5f6113a485828601611161565b92505060206113b585828601611161565b9150509250929050565b7f4e487b71000000000000000000000000000000000000000000000000000000005f52602260045260245ffd5b5f600282049050600182168061140357607f821691505b602082108103611416576114156113bf565b5b50919050565b6114258161113a565b82525050565b5f60608201905061143e5f83018661141c565b61144b60208301856111e6565b61145860408301846111e6565b949350505050565b5f6020820190506114735f83018461141c565b92915050565b7f4e487b71000000000000000000000000000000000000000000000000000000005f52601160045260245ffd5b5f6114b082611175565b91506114bb83611175565b92508282019050808211156114d3576114d2611479565b5b92915050565b5f6040820190506114ec5f83018561141c565b6114f960208301846112bc565b939250505056fea26469706673582212200dbf1975b9f09d69a327b86034821092d26a00bef84390ae96fc711a9137b62864736f6c63430008140033",
  "devdoc": {
    "errors": {
      "AccessControlBadConfirmation()": [
        {
          "details": "The caller of a function is not the expected one. NOTE: Don't confuse with {AccessControlUnauthorizedAccount}."
        }
      ],
      "AccessControlUnauthorizedAccount(address,bytes32)": [
        {
          "details": "The `account` is missing a role."
        }
      ],
      "ERC20InsufficientAllowance(address,uint256,uint256)": [
        {
          "details": "Indicates a failure with the `spender`s `allowance`. Used in transfers.",
          "params": {
            "allowance": "Amount of tokens a `spender` is allowed to operate with.",
            "needed": "Minimum amount required to perform a transfer.",
            "spender": "Address that may be allowed to operate on tokens without being their owner."
          }
        }
      ],
      "ERC20InsufficientBalance(address,uint256,uint256)": [
        {
          "details": "Indicates an error related to the current `balance` of a `sender`. Used in transfers.",
          "params": {
            "balance": "Current balance for the interacting account.",
            "needed": "Minimum amount required to perform a transfer.",
            "sender": "Address whose tokens are being transferred."
          }
        }
      ],
      "ERC20InvalidApprover(address)": [
        {
          "details": "Indicates a failure with the `approver` of a token to be approved. Used in approvals.",
          "params": {
            "approver": "Address initiating an approval operation."
          }
        }
      ],
      "ERC20InvalidReceiver(address)": [
        {
          "details": "Indicates a failure with the token `receiver`. Used in transfers.",
          "params": {
            "receiver": "Address to which tokens are being transferred."
          }
        }
      ],
      "ERC20InvalidSender(address)": [
        {
          "details": "Indicates a failure with the token `sender`. Used in transfers.",
          "params": {
            "sender": "Address whose tokens are being transferred."
          }
        }
      ],
      "ERC20InvalidSpender(address)": [
        {
          "details": "Indicates a failure with the `spender` to be approved. Used in approvals.",
          "params": {
            "spender": "Address that may be allowed to operate on tokens without being their owner."
          }
        }
      ]
    },
    "events": {
      "Approval(address,address,uint256)": {
        "details": "Emitted when the allowance of a `spender` for an `owner` is set by a call to {approve}. `value` is the new allowance."
      },
      "RoleAdminChanged(bytes32,bytes32,bytes32)": {
        "details": "Emitted when `newAdminRole` is set as ``role``'s admin role, replacing `previousAdminRole` `DEFAULT_ADMIN_ROLE` is the starting admin for all roles, despite {RoleAdminChanged} not being emitted signaling this."
      },
      "RoleGranted(bytes32,address,address)": {
        "details": "Emitted when `account` is granted `role`. `sender` is the account that originated the contract call, an admin role bearer except when using {AccessControl-_setupRole}."
      },
      "RoleRevoked(bytes32,address,address)": {
        "details": "Emitted when `account` is revoked `role`. `sender` is the account that originated the contract call:   - if using `revokeRole`, it is the admin role bearer   - if using `renounceRole`, it is the role bearer (i.e. `account`)"
      },
      "Transfer(address,address,uint256)": {
        "details": "Emitted when `value` tokens are moved from one account (`from`) to another (`to`). Note that `value` may be zero."
      }
    },
    "kind": "dev",
    "methods": {
      "allowance(address,address)": {
        "details": "See {IERC20-allowance}."
      },
      "approve(address,uint256)": {
        "details": "See {IERC20-approve}. NOTE: If `value` is the maximum `uint256`, the allowance is not updated on `transferFrom`. This is semantically equivalent to an infinite approval. Requirements: - `spender` cannot be the zero address."
      },
      "balanceOf(address)": {
        "details": "See {IERC20-balanceOf}."
      },
      "decimals()": {
        "details": "Returns the number of decimals used to get its user representation. For example, if `decimals` equals `2`, a balance of `505` tokens should be displayed to a user as `5.05` (`505 / 10 ** 2`). Tokens usually opt for a value of 18, imitating the relationship between Ether and Wei. This is the default value returned by this function, unless it's overridden. NOTE: This information is only used for _display_ purposes: it in no way affects any of the arithmetic of the contract, including {IERC20-balanceOf} and {IERC20-transfer}."
      },
      "getRoleAdmin(bytes32)": {
        "details": "Returns the admin role that controls `role`. See {grantRole} and {revokeRole}. To change a role's admin, use {_setRoleAdmin}."
      },
      "grantRole(bytes32,address)": {
        "details": "Grants `role` to `account`. If `account` had not been already granted `role`, emits a {RoleGranted} event. Requirements: - the caller must have ``role``'s admin role. May emit a {RoleGranted} event."
      },
      "hasRole(bytes32,address)": {
        "details": "Returns `true` if `account` has been granted `role`."
      },
      "name()": {
        "details": "Returns the name of the token."
      },
      "renounceRole(bytes32,address)": {
        "details": "Revokes `role` from the calling account. Roles are often managed via {grantRole} and {revokeRole}: this function's purpose is to provide a mechanism for accounts to lose their privileges if they are compromised (such as when a trusted device is misplaced). If the calling account had been revoked `role`, emits a {RoleRevoked} event. Requirements: - the caller must be `callerConfirmation`. May emit a {RoleRevoked} event."
      },
      "revokeRole(bytes32,address)": {
        "details": "Revokes `role` from `account`. If `account` had been granted `role`, emits a {RoleRevoked} event. Requirements: - the caller must have ``role``'s admin role. May emit a {RoleRevoked} event."
      },
      "supportsInterface(bytes4)": {
        "details": "See {IERC165-supportsInterface}."
      },
      "symbol()": {
        "details": "Returns the symbol of the token, usually a shorter version of the name."
      },
      "totalSupply()": {
        "details": "See {IERC20-totalSupply}."
      },
      "transfer(address,uint256)": {
        "details": "See {IERC20-transfer}. Requirements: - `to` cannot be the zero address. - the caller must have a balance of at least `value`."
      },
      "transferFrom(address,address,uint256)": {
        "details": "See {IERC20-transferFrom}. Emits an {Approval} event indicating the updated allowance. This is not required by the EIP. See the note at the beginning of {ERC20}. NOTE: Does not update the allowance if the current allowance is the maximum `uint256`. Requirements: - `from` and `to` cannot be the zero address. - `from` must have a balance of at least `value`. - the caller must have allowance for ``from``'s tokens of at least `value`."
      }
    },
    "version": 1
  },
  "userdoc": {
    "kind": "user",
    "methods": {},
    "version": 1
  },
  "storageLayout": {
    "storage": [
      {
        "astId": 538,
        "contract": "contracts/Token.sol:Aluxion",
        "label": "_balances",
        "offset": 0,
        "slot": "0",
        "type": "t_mapping(t_address,t_uint256)"
      },
      {
        "astId": 544,
        "contract": "contracts/Token.sol:Aluxion",
        "label": "_allowances",
        "offset": 0,
        "slot": "1",
        "type": "t_mapping(t_address,t_mapping(t_address,t_uint256))"
      },
      {
        "astId": 546,
        "contract": "contracts/Token.sol:Aluxion",
        "label": "_totalSupply",
        "offset": 0,
        "slot": "2",
        "type": "t_uint256"
      },
      {
        "astId": 548,
        "contract": "contracts/Token.sol:Aluxion",
        "label": "_name",
        "offset": 0,
        "slot": "3",
        "type": "t_string_storage"
      },
      {
        "astId": 550,
        "contract": "contracts/Token.sol:Aluxion",
        "label": "_symbol",
        "offset": 0,
        "slot": "4",
        "type": "t_string_storage"
      },
      {
        "astId": 26,
        "contract": "contracts/Token.sol:Aluxion",
        "label": "_roles",
        "offset": 0,
        "slot": "5",
        "type": "t_mapping(t_bytes32,t_struct(RoleData)21_storage)"
      }
    ],
    "types": {
      "t_address": {
        "encoding": "inplace",
        "label": "address",
        "numberOfBytes": "20"
      },
      "t_bool": {
        "encoding": "inplace",
        "label": "bool",
        "numberOfBytes": "1"
      },
      "t_bytes32": {
        "encoding": "inplace",
        "label": "bytes32",
        "numberOfBytes": "32"
      },
      "t_mapping(t_address,t_bool)": {
        "encoding": "mapping",
        "key": "t_address",
        "label": "mapping(address => bool)",
        "numberOfBytes": "32",
        "value": "t_bool"
      },
      "t_mapping(t_address,t_mapping(t_address,t_uint256))": {
        "encoding": "mapping",
        "key": "t_address",
        "label": "mapping(address => mapping(address => uint256))",
        "numberOfBytes": "32",
        "value": "t_mapping(t_address,t_uint256)"
      },
      "t_mapping(t_address,t_uint256)": {
        "encoding": "mapping",
        "key": "t_address",
        "label": "mapping(address => uint256)",
        "numberOfBytes": "32",
        "value": "t_uint256"
      },
      "t_mapping(t_bytes32,t_struct(RoleData)21_storage)": {
        "encoding": "mapping",
        "key": "t_bytes32",
        "label": "mapping(bytes32 => struct AccessControl.RoleData)",
        "numberOfBytes": "32",
        "value": "t_struct(RoleData)21_storage"
      },
      "t_string_storage": {
        "encoding": "bytes",
        "label": "string",
        "numberOfBytes": "32"
      },
      "t_struct(RoleData)21_storage": {
        "encoding": "inplace",
        "label": "struct AccessControl.RoleData",
        "members": [
          {
            "astId": 18,
            "contract": "contracts/Token.sol:Aluxion",
            "label": "hasRole",
            "offset": 0,
            "slot": "0",
            "type": "t_mapping(t_address,t_bool)"
          },
          {
            "astId": 20,
            "contract": "contracts/Token.sol:Aluxion",
            "label": "adminRole",
            "offset": 0,
            "slot": "1",
            "type": "t_bytes32"
          }
        ],
        "numberOfBytes": "64"
      },
      "t_uint256": {
        "encoding": "inplace",
        "label": "uint256",
        "numberOfBytes": "32"
      }
    }
  }
}